:200000000C9434000C9458000C9458000C9458000C9458000C9458000C9458000C94580044
:200020000C9458000C9458000C9458000C9458000C9458000C9458000C9458000C94580000
:200040000C9458000C9458000C9458000C9458000C9458000C9458000C9458000C945800E0
:200060000C9458000C94580011241FBECFEFD8E0DEBFCDBF0E9440000C944D00F894FFCFB6
:200080008FEF84B985B18F5F85B980E090E001968F3F2FE79207D9F7F5CFEC010E945D00DF
:2000A0000E945C00CE010E945E00CE010E945A000C9400000E943E00089508950895FFFF53
:2000C000FFFFFFFFFFFFFFFFFFFFFFFFFFFFFFFFFFFFFFFFFFFFFFFFFFFFFFFFFFFFFFFF40
:2000E000FFFFFFFFFFFFFFFFFFFFFFFFFFFFFFFFFFFFFFFFFFFFFFFFFFFFFFFFFFFFFFFF20
:200100006401019690936401809363010895AF92BF92CF92DF92EF92FF920F931F93CF931B
:20012000DF936C017B018B01040F151FEB015E01AE18BF08C017D10759F06991D601ED9172
:20014000FC910190F081E02DC6010995892B79F7C501DF91CF911F910F91FF90EF90DF9017
:20016000CF90BF90AF900895FC01538D448D252F30E0842F90E0821B930B541710F0CF96B5
:20018000089501970895FC01918D828D981761F0A28DAE0FBF2FB11D5D968C91928D9F5F8E
:2001A0009F73928F90E008958FEF9FEF0895FC01918D828D981731F0828DE80FF11D858D36
:2001C00090E008958FEF9FEF0895FC01918D228D892F90E0805C9F4F821B91098F739927B4
:2001E000089585E691E00E94E50021E0892B09F420E0822F089580E090E0892B29F00E94C0
:20020000F10081110C9400000895FC01A48DA80FB92FB11DA35ABF4F2C91848D90E00196A3
:200220008F739927848FA689B7892C93A089B1898C91837080648C93938D848D981306C0A3
:200240000288F389E02D80818F7D80830895EF92FF920F931F93CF93DF93EC0181E0888F3F
:200260009B8D8C8D98131AC0E889F989808185FF15C09FB7F894EE89FF896083E889F989B4
:2002800080818370806480839FBF81E090E0DF91CF911F910F91FF90EF900895F62E0B8DCD
:2002A00010E00F5F1F4F0F731127E02E8C8D8E110CC00FB607FCFACFE889F989808185FF1D
:2002C000F5CFCE010E940501F1CFEB8DEC0FFD2FF11DE35AFF4FF0829FB7F8940B8FEA898A
:2002E000FB8980818062CFCFCF93DF93EC01888D8823B9F0AA89BB89E889F9898C9185FDC6
:2003000003C0808186FD0DC00FB607FCF7CF8C9185FFF2CF808185FFEDCFCE010E94050121
:20032000E9CFDF91CF9108953FB7F89480915F0190916001A0916101B091620126B5A89BCE
:2003400005C02F3F19F00196A11DB11D3FBFBA2FA92F982F8827BC01CD01620F711D811DE1
:20036000911D42E0660F771F881F991F4A95D1F708950895FC0101900020E9F73197AF015C
:20038000481B590BBC0185E691E00C9487008F929F92AF92BF920F931F93CF93DF93CDB746
:2003A000DEB7A1970FB6F894DEBF0FBECDBF19A2423008F44AE08E010F5D1F4F842E912CFE
:2003C000B12CA12CA50194010E942A07E62FB901CA01EA30F4F4E05DD801EE938D01232B56
:2003E000242B252B79F790E080E0109719F0CD010E94BA01A1960FB6F894DEBF0FBECDBFC5
:20040000DF91CF911F910F91BF90AF909F908F900895E95CE1CF1F920F920FB60F92112461
:200420002F933F934F935F936F937F938F939F93AF93BF93EF93FF9385E691E00E940501C0
:20044000FF91EF91BF91AF919F918F917F916F915F914F913F912F910F900FBE0F901F9082
:2004600018951F920F920FB60F9211242F938F939F93EF93FF93E0917501F09176018081D8
:20048000E0917B01F0917C0182FD1BC0908180917E018F5F8F7320917F01821741F0E0911A
:2004A0007E01F0E0EB59FE4F958F80937E01FF91EF919F918F912F910F900FBE0F901F90CC
:2004C00018958081F4CF1F920F920FB60F9211242F933F938F939F93AF93BF9380915B01D5
:2004E00090915C01A0915D01B0915E0130915A0123E0230F2D3758F50196A11DB11D209377
:200500005A0180935B0190935C01A0935D01B0935E0180915F0190916001A0916101B09197
:2005200062010196A11DB11D80935F0190936001A0936101B0936201BF91AF919F918F9123
:200540003F912F910F900FBE0F901F90189526E8230F0296A11DB11DD2CF1F920F920FB688
:200560000F9211242F933F934F935F936F937F938F939F93AF93BF93EF93FF93E0910201B9
:20058000F09103010995FF91EF91BF91AF919F918F917F916F915F914F913F912F910F9039
:2005A0000FBE0F901F9018951F920F920FB60F9211242F933F934F935F936F937F938F93E8
:2005C0009F93AF93BF93EF93FF93E0910001F09101010995FF91EF91BF91AF919F918F91BE
:2005E0007F916F915F914F913F912F910F900FBE0F901F901895789484B5826084BD84B583
:20060000816084BD85B5826085BD85B5816085BD80916E00816080936E00109281008091E8
:20062000810082608093810080918100816080938100809180008160809380008091B100F5
:2006400084608093B1008091B00081608093B00080917A00846080937A0080917A00826024
:2006600080937A0080917A00816080937A0080917A00806880937A001092C100E3E9F0E0F5
:200680002491EFE7F0E084918823C1F090E0880F991FFC01EE58FF4FC591D491FC01E85945
:2006A000FF4FA591B4919FB7F8948881E22FE0958E2388838C91E823EC939FBFE091750158
:2006C000F091760182E08083E0917101F09172011082E0917301F09174018FEC8083109259
:2006E0007D01E0917901F0917A0186E08083E0917701F0917801808180618083E09177017B
:20070000F0917801808188608083E0917701F0917801808180688083E0917701F091780141
:2007200080818F7D80838DE790E09093030180930201809169008C6080936900E99AC0E083
:20074000D0E00E9494014B015C0188EEC82E83E0D82EE12CF12C0E949401681979098A093D
:200760009B09683E734081059105A8F321E0C21AD108E108F10888EE880E83E0981EA11C4B
:20078000B11CC114D104E104F10429F786E191E00E94BA018DE391E00E94BA0180E491E0A0
:2007A0000E94BA016091630170916401072E000C880B990B0E9403062BED3FE049E450E466
:2007C0000E94B80620E030E040EF51E40E9460056B017C014B015C01AC019B010E94250795
:2007E0008823D9F188E491E00E94BA018DE391E00E94BA0184E591E00E94BA01C090630121
:20080000D09064010D2C000CEE08FF084AE0C701B601F7FE0DC06DE285E691E00E94270171
:2008200066277727CB016C197D098E099F094AE00E94C7018DE391E00E94BA01109264019E
:2008400010926301209709F47CCF0E94F100882309F477CF0E94000074CF26013701E89452
:2008600077F82FEF3FEF4FE75FE7C301B2010E94250781110DC02FEF3FEF4FE75FE7C30111
:20088000B2010E945B0518161CF48CE491E0ACCF2FEF3FEF4FE75FE4C701B6010E94B3066A
:2008A00018161CF480E591E09FCF2FEF3FEF4FE75FECC701B6010E945B0587FDF3CF20E022
:2008C00030E0A901C701B6010E945B0587FF0BC06DE285E691E00E94270146015701B7FA47
:2008E000B094B7F8B0942AE037ED43EA5BE3C501B4010E94EF044B015C010E94D2056B018A
:200900007C010E9401069B01AC01C501B4010E94EE044B015C014AE0C701B6010E94C7019D
:200920006EE285E691E00E94270120E030E040E251E4C501B4010E94B8064B015C010E9434
:20094000D2056B01F12CE12C4AE0C701B6010E94C701C701B6010E9401069B01AC01C501E0
:20096000B4010E94EE0420E030E040E251E40E94B8060E94D20590E080E04AE00E94C7018A
:2009800035CFE5E6F1E01382128288EE93E0A0E0B0E084839583A683B78388E091E0918326
:2009A000808385EC90E09587848784EC90E09787868780EC90E0918B808B81EC90E0938B23
:2009C000828B82EC90E0958B848B86EC90E0978B868B118E128E138E148E08955058BB273F
:2009E000AA270E9406050C9479060E946B0638F00E94720620F039F49F3F19F426F40C9423
:200A000068060EF4E095E7FB0C946206E92F0E948A0658F3BA17620773078407950720F087
:200A200079F4A6F50C94AC060EF4E0950B2EBA2FA02D0B01B90190010C01CA01A0011124F1
:200A4000FF27591B99F0593F50F4503E68F11A16F040A22F232F342F4427585FF3CF46950B
:200A600037952795A795F0405395C9F77EF41F16BA0B620B730B840BBAF09150A1F0FF0FCA
:200A8000BB1F661F771F881FC2F70EC0BA0F621F731F841F48F4879577956795B795F7957C
:200AA0009E3F08F0B0CF9395880F08F09927EE0F9795879508950E943E0608F481E00895A9
:200AC0000E9474050C9479060E94720658F00E946B0640F029F45F3F29F00C9462065111F9
:200AE0000C94AD060C9468060E948A0668F39923B1F3552391F3951B550BBB27AA27621770
:200B00007307840738F09F5F5F4F220F331F441FAA1FA9F335D00E2E3AF0E0E832D091509B
:200B20005040E695001CCAF72BD0FE2F29D0660F771F881FBB1F261737074807AB07B0E80C
:200B400009F0BB0B802DBF01FF2793585F4F3AF09E3F510578F00C9462060C94AD065F3FEC
:200B6000E4F3983ED4F3869577956795B795F7959F5FC9F7880F911D9695879597F908958F
:200B8000E1E0660F771F881FBB1F621773078407BA0720F0621B730B840BBA0BEE1F88F7DE
:200BA000E09508950E94920688F09F5798F0B92F9927B751B0F0E1F0660F771F881F991F68
:200BC0001AF0BA95C9F714C0B13091F00E94AC06B1E008950C94AC06672F782F8827B85FEF
:200BE00039F0B93FCCF3869577956795B395D9F73EF490958095709561957F4F8F4F9F4FD9
:200C00000895E89409C097FB3EF490958095709561957F4F8F4F9F4F9923A9F0F92F96E963
:200C2000BB279395F695879577956795B795F111F8CFFAF4BB0F11F460FF1BC06F5F7F4F53
:200C40008F4F9F4F16C0882311F096E911C0772321F09EE8872F762F05C0662371F096E83D
:200C6000862F70E060E02AF09A95660F771F881FDAF7880F9695879597F90895990F0008A8
:200C8000550FAA0BE0E8FEEF16161706E807F907C0F012161306E407F50798F0621B730BF3
:200CA000840B950B39F40A2661F0232B242B252B21F408950A2609F4A140A6958FEF811D53
:200CC000811D089597F99F6780E870E060E008959FEF80EC089500240A94161617061806EE
:200CE0000906089500240A9412161306140605060895092E0394000C11F4882352F0BB0FED
:200D000040F4BF2B11F460FF04C06F5F7F4F8F4F9F4F089557FD9058440F551F59F05F3F9E
:200D200071F04795880F97FB991F61F09F3F79F087950895121613061406551FF2CF4695D9
:200D4000F1DF08C0161617061806991FF1CF86957105610508940895E894BB276627772763
:200D6000CB0197F908950E943E0608F48FEF08950E94CB060C9479060E946B0638F00E940E
:200D8000720620F0952311F00C9462060C94680611240C94AD060E948A0670F3959FC1F3F7
:200DA000950F50E0551F629FF001729FBB27F00DB11D639FAA27F00DB11DAA1F649F662744
:200DC000B00DA11D661F829F2227B00DA11D621F739FB00DA11D621F839FA00D611D221F11
:200DE000749F3327A00D611D231F849F600D211D822F762F6A2F11249F5750409AF0F1F036
:200E000088234AF0EE0FFF1FBB1F661F771F881F91505040A9F79E3F510580F00C9462067A
:200E20000C94AD065F3FE4F3983ED4F3869577956795B795F795E7959F5FC1F7FE2B880F60
:200E4000911D9695879597F908950E943E06880B990B0895A1E21A2EAA1BBB1BFD010DC085
:200E6000AA1FBB1FEE1FFF1FA217B307E407F50720F0A21BB30BE40BF50B661F771F881F0E
:200E8000991F1A9469F760957095809590959B01AC01BD01CF010895EE0FFF1F0590F491AF
:200EA000E02D0994F894FFCFB901B9010000000027018700B4007401E500C300D7002D2D09
:200EC0002D2D2D2D2D2D2D2D2D2D2D2D2D2D2D2D2D2D2D2D2D2D2D2D2D2D2D2D2D2D2D2D72
:200EE0002D2D2D2D000D0A004F6D6567613A20006E616E00696E66006F76660052504D3AF6
:200F00002000FFFFFFFFFFFFFFFFFFFFFFFFFFFFFFFFFFFFFFFFFFFFFFFFFFFFFFFFFFFFCF
:200F2000FFFFFFFFFFFFFFFFFFFFFFFFFFFFFFFFFFFFFFFFFFFFFFFFFFFFFFFFFFFFFFFFD1
:200F4000FFFFFFFFFFFFFFFFFFFFFFFFFFFFFFFFFFFFFFFFFFFFFFFFFFFFFFFFFFFFFFFFB1
:200F6000FFFFFFFFFFFFFFFFFFFFFFFFFFFFFFFFFFFFFFFFFFFFFFFFFFFFFFFFFFFFFFFF91
:200F800091E00E94850268EE73E080E090E00E9446028FE191E00E94850268EE73E080E041
:200FA00090E00E9446028DE191E00E94850268EE73E080E090E00E9446028BE191E00E94ED
:200FC000850268EE73E080E090E00E94460289E191E00E94850268EE73E080E090E00E9408
:200FE000460287E191E00E94850268EE73E080E090E00E94460285E191E00E94850268EEEE
:2010000073E080E090E00E94460288E291E00E94850261E070E080E090E00E94460261E033
:2010200089E00E94C20108EE13E061E088E00E94C20168EC70E080E090E00E94460260E04D
:2010400088E00E94C20168EC70E080E090E00E9446020150110949F780913301909134011F
:201060000A9709F0B1C087E291E00E94850268EE73E080E090E00E94460285E291E00E9485
:20108000850268EE73E080E090E00E94460283E291E00E94850268EE73E080E090E00E944C
:2010A000460281E291E00E94850268EE73E080E090E00E9446028FE191E00E94850268EE28
:2010C00073E080E090E00E9446028DE191E00E94850268EE73E080E090E00E9446028BE12C
:2010E00091E00E94850268EE73E080E090E00E94460289E191E00E94850268EE73E080E0E6
:2011000090E00E94460287E191E00E94850268EE73E080E090E00E94460285E191E00E9497
:20112000850268EE73E080E090E00E94460288E291E00E94850261E070E080E090E00E94BE
:20114000460261E089E00E94C20108EE13E061E088E00E94C20168EC70E080E090E00E942B
:20116000460260E088E00E94C20168EC70E080E090E00E9446020150110949F725C0A20189
:20118000910119A28E010F5D1F4FCA01B901A50194010E941E09605DF80162938F0121159F
:2011A00031054105510589F7DECB81110E949901E12FF0E0EE0FFF1FE458FF4FA591B49166
:2011C000EC910E2309F4E4CB80E090E0892B09F4E8CA0E94F600882309F4DACA0E940000FC
:2011E000D7CAE9E3F1E01382128288EE93E0A0E0B0E084839583A683B78384E091E0918324
:20120000808385EC90E09587848784EC90E09787868780EC90E0918B808B81EC90E0938BBA
:20122000828B82EC90E0958B848B86EC90E0978B868B118E128E138E148E0895A1E21A2E95
:20124000AA1BBB1BFD010DC0AA1FBB1FEE1FFF1FA217B307E407F50720F0A21BB30BE40B86
:20126000F50B661F771F881F991F1A9469F760957095809590959B01AC01BD01CF0108953E
:20128000EE0FFF1F0590F491E02D0994F894FFCF000000002C018C00B9007901EA00C80077
:2012A000DC000D0A00310032003300340035003600370038003900313000FFFFFFFFFFFF03
:2012C000FFFFFFFFFFFFFFFFFFFFFFFFFFFFFFFFFFFFFFFFFFFFFFFFFFFFFFFFFFFFFFFF2E
:2012E000FFFFFFFFFFFFFFFFFFFFFFFFFFFFFFFFFFFFFFFFFFFFFFFFFFFFFFFFFFFFFFFF0E
:2013000086EC90E0978B868B118E128E138E148E0895A1E21A2EAA1BBB1BFD010DC0AA1F9F
:20132000BB1FEE1FFF1FA217B307E407F50720F0A21BB30BE40BF50B661F771F881F991F5A
:201340001A9469F760957095809590959B01AC01BD01CF010895EE0FFF1F0590F491E02D95
:201360000994F894FFCF000000002C018C00B9007901EA00C800DC000D0A0031003200334F
:2013800000340035003600370038003900313000FFFFFFFFFFFFFFFFFFFFFFFFFFFFFFFFB5
:2013A000FFFFFFFFFFFFFFFFFFFFFFFFFFFFFFFFFFFFFFFFFFFFFFFFFFFFFFFFFFFFFFFF4D
:2013C000FFFFFFFFFFFFFFFFFFFFFFFFFFFFFFFFFFFFFFFFFFFFFFFFFFFFFFFFFFFFFFFF2D
:2013E000FFFFFFFFFFFFFFFFFFFFFFFFFFFFFFFFFFFFFFFFFFFFFFFFFFFFFFFFFFFFFFFF0D
:20140000FFFFFFFFFFFFFFFFFFFFFFFFFFFFFFFFFFFFFFFFFFFFFFFFFFFFFFFFFFFFFFFFEC
:207E0000112484B714BE81FFF0D085E08093810082E08093C00088E18093C10086E08093FC
:207E2000C20080E18093C4008EE0C9D0259A86E020E33CEF91E0309385002093840096BBAD
:207E4000B09BFECF1D9AA8958150A9F7CC24DD2488248394B5E0AB2EA1E19A2EF3E0BF2E79
:207E6000A2D0813461F49FD0082FAFD0023811F0013811F484E001C083E08DD089C0823404
:207E800011F484E103C0853419F485E0A6D080C0853579F488D0E82EFF2485D0082F10E0A0
:207EA000102F00270E291F29000F111F8ED068016FC0863521F484E090D080E0DECF84364D
:207EC00009F040C070D06FD0082F6DD080E0C81680E7D80618F4F601B7BEE895C0E0D1E0ED
:207EE00062D089930C17E1F7F0E0CF16F0E7DF0618F0F601B7BEE89568D007B600FCFDCF1A
:207F0000A601A0E0B1E02C9130E011968C91119790E0982F8827822B932B1296FA010C016F
:207F200087BEE89511244E5F5F4FF1E0A038BF0751F7F601A7BEE89507B600FCFDCF97BE85
:207F4000E89526C08437B1F42ED02DD0F82E2BD03CD0F601EF2C8F010F5F1F4F84911BD0B8
:207F6000EA94F801C1F70894C11CD11CFA94CF0CD11C0EC0853739F428D08EE10CD085E9AE
:207F80000AD08FE07ACF813511F488E018D01DD080E101D065CF982F8091C00085FFFCCF0A
:207FA0009093C60008958091C00087FFFCCF8091C00084FD01C0A8958091C6000895E0E68F
:207FC000F0E098E1908380830895EDDF803219F088E0F5DFFFCF84E1DECF1F93182FE3DF47
:207FE0001150E9F7F2DF1F91089580E0E8DFEE27FF270994FFFFFFFFFFFFFFFFFFFF040425
:00000001FF
