:200000000C94CE000C94F6000C94F6000C94F6000C94F6000C94F6000C94F6000C94F60058
:200020000C94F6000C94F6000C94D5030C9444040C94F6000C94F6000C94F6000C94F600DC
:200040000C94F6000C94F6000C94F6000C94F6000C94F6000C94F6000C94F6000C9476066A
:200060000C94F6000C94F6000C94F6000C94F6000C94F6000C94F6000C94F6000C94F600D0
:200080000C94F6000C94F6000C94F6000C94F6000C94F6000C94F6000C94F6000C94F600B0
:2000A0000C94F6000C94F6000C94F60000000000240027002A002D003000080B0002020293
:2000C00000000904000001020200000524001001052401010104240206052406000107053C
:2000E000810310004009040100020A000000070502024000000705830240000004030904DD
:2001000012010002EF0201404123368000010102030141726475696E6F204C4C43004172F6
:200120006475696E6F204C656F6E6172646F0000000000250028002B002E00310004040469
:2001400004040304050202020204030202020206060606060604040202020404040802012B
:2001600010408040102040804080080204018040201002011080102040402000000002005B
:20018000090F0000030401000C0000000000000000000000000000000000C00611241FBE5B
:2001A000CFEFDAE0DEBFCDBF11E0A0E0B1E0EEE4FFE002C005900D92A632B107D9F721E094
:2001C000A6E2B1E001C01D92A539B207E1F710E0CEECD0E004C02197FE010E949F07CD3C01
:2001E000D107C9F70E94D5060C94A5070C940000E8E8F1E02491E9E6F1E03491EAE4F1E0A4
:200200009491992309F430C02223E9F021502F30D0F4E22FF0E0E15FFE4F0C949F073D016C
:2002200041011E013501390123012301230144014A014E015201580123015C012091800044
:200240002F7720938000E92FF0E0EE0FFF1FE15DFE4FA591B4919FB7F894EC91811132C0D9
:2002600030953E233C939FBF0895209180002F7DE8CF20918000277FE4CF24B52F7724BD10
:20028000E2CF24B52F7DFBCF209190002F7720939000D9CF209190002F7DF9CF2091900096
:2002A000277FF5CF2091C0002F772093C000CBCF2091C0002F7DF9CF2091C200277F2093FF
:2002C000C200C1CF3E2BCECFFC0180919401882311F13FB7F89482E08093E9002091F200F3
:2002E000822F90E01816190614F481E090E0882339F0289844E6409393014091F10040830D
:20030000222339F02091F200211103C02BE62093E8003FBF08958FEF9FEF08952FB7F89475
:2003200083E08093E9009091E800892F807295FF04C09091F20080E4891B2FBF089580919C
:200340008B0181110DC082E08093870184E08093880110928A011092890181E080938B015C
:2003600087E891E00895CF93DF931F92CDB7DEB76983DC01ED91FC910280F381E02D41E06A
:2003800050E0BE016F5F7F4F09950F90DF91CF91089583E08093E9008091F200882319F012
:2003A0008AE38093E80008950E948E0190E00895CF93DF931F92CDB7DEB7FC01848595853C
:2003C00097FD08C02FEF3FEF358724870F90DF91CF910895CE0101960E946401019719F4F0
:2003E000898190E0F3CF8FEF9FEFF0CF0F931F93CF93DF931F92CDB7DEB78C01FC01848571
:20040000958597FF0BC0CE0101960E946401019771F4898190E0F80195878487F80184855B
:2004200095850F90DF91CF911F910F9108958FEF9FEFF1CFFC018485958597FD0BC09FB7A5
:20044000F89482E08093E9008091F2009FBF90E0019608959FB7F89482E08093E90080915C
:20046000F2009FBF90E00895409131015091320120912F013091300142175307B4F49091B9
:20048000E8009570E1F39091E80092FD19C08093F100809131019091320101968F73992736
:2004A000892B19F48EEF8093E80080913101909132010196909332018093310181E008953C
:2004C00080E00895EF92FF920F931F93CF93DF93F82E192FE62E042F81E0860F880F0E9401
:2004E000340283E00E943402CF2DD12FEC0EFD2EF11CCE15DF05B9F007FF13C0FE01849100
:200500000E943402182F80E00E943402812321968111EFCFDF91CF911F910F91FF90EF90AB
:2005200008958881EDCF81E0F5CFDF92EF92FF920F931F93CF93DF93D82E8A01EB017B0190
:20054000E40EF51ECE15DF0559F0D7FE12C0FE0184910E94340221968111F4CF0FEF1FEFDB
:20056000C801DF91CF911F910F91FF90EF90DF9008958881EECF0F931F93CF93DF931F92D9
:20058000CDB7DEB782E0898342E450E06AEB70E080E80E9495020E949F01DC0112960D91D3
:2005A0001C910115110589F0D801ED91FC910280F381E02DBE016F5F7F4FC801099597FDAC
:2005C00004C0F80100851185ECCF89810F90DF91CF911F910F910895615030F02091F100AF
:2005E000FC0120830196F8CF289884E68093930108953FB7F89480912B0190912C01A09151
:200600002D01B0912E0126B5A89B05C02F3F19F00196A11DB11D3FBFBA2FA92F982F88278A
:20062000BC01CD01620F711D811D911D42E0660F771F881F991F4A95D1F708958F929F92C2
:20064000AF92BF92CF92DF92EF92FF924B015C010E94F9026B017C010E94F9026C197D094D
:200660008E099F09683E734081059105A8F321E0821A9108A108B10888EEC80E83E0D81EEE
:20068000E11CF11C81149104A104B10429F7FF90EF90DF90CF90BF90AF909F908F90089557
:2006A0008F929F92AF92BF92CF92DF92EF92FF920F931F93CF93DF936C017B018A018091C5
:2006C0000B01882309F45CC080919401882309F457C08091360180FF05C08091E000826086
:2006E0008093E000E801B12C8AEFA82E93E0892E2AE3922E209711F4BB20D9F10E948E0169
:2007000081110AC0AA94AA20D9F161E070E080E090E00E941E03EECF8C171D0611F00CF007
:200720008C2F9FB7F8948092E9002091E80025FD02C09FBFDFCF282F30E0C21BD30BF7017E
:20074000815020F041914093F100FACFE20EF31EBB2021F09092E800B12CEBCF8091E800D2
:2007600085FDE7CF9092E800BB24B394209709F3F3CF5D9884E680933501101611063CF08B
:2007800081E090E0F6019383828310E000E0C801DF91CF911F910F91FF90EF90DF90CF90E1
:2007A000BF90AF909F908F9008951F920F920FB60F9211248F939F938091E1009091E1008B
:2007C000937F9093E10083FF0FC01092E90091E09093EB001092EC0092E39093ED001092F3
:2007E000940198E09093F00082FF22C093E09093E9009091F200992319F09AE39093E80097
:2008000090913501992341F090913501915090933501911101C05D9A90919301992341F007
:2008200090919301915090939301911101C0289A84FF18C08091E2008E7E81608093E20016
:200840008091E1008F7E8093E100809136018E7E8061809336019F918F910F900FBE0F90CB
:200860001F90189580FFF7CF8091E2008E7E80618093E2008091E1008E7E8093E1008091FF
:2008800036018E7E8160E5CF1F920F920FB60F921124CF92DF92EF92FF920F931F932F9399
:2008A0003F934F935F936F937F938F939F93AF93BF93EF93FF93CF93DF93CDB7DEB76C9792
:2008C000DEBFCDBF1092E9008091E80083FF25C068E0CE0145960E94EC0282EF8093E80016
:2008E0008D8987FF39C09091E80090FFFCCF982F907609F034C19E894F89588D2F89F88C25
:20090000911131C0803861F5809134018093F1001092F1008EEF8093E8006C960FB6F8948E
:20092000DEBF0FBECDBFDF91CF91FF91EF91BF91AF919F918F917F916F915F914F913F9151
:200940002F911F910F91FF90EF90DF90CF900F900FBE0F901F9018959EEF9093E800C7CF16
:200960001092F100D5CF913059F48111D3CF4130510581F6809134018D7F80933401CACF8D
:20098000933049F48111C6CF4130510519F6809134018260F2CF953041F48091E80080FFFF
:2009A000FCCF20682093E300B5CF963009F0A9C00B8D1C8D22E01092E9001092320110925D
:2009C0003101F2122EC01092300110922F010E94BB021F8299E09983FA8291E09E8390EA31
:2009E00098879AEF99872091310130913201275F3F4F3C832B838D831092E9001092320167
:200A0000109231011093300100932F0149E050E0BE016F5F7F4F80E00E9495020E94BB02BF
:200A200079CF1093300100932F010E949F01DC0112960D911C910115110509F451C1D801B1
:200A4000ED91FC910480F581E02DBE016B5E7F4FC8010995009709F03EC1F8010085118524
:200A6000EACFF3E0FF120EC08F89882309F440C0823061F440E860E18EE191E00E946202F5
:200A8000811148CF81E28093EB0047CF813029F440E86BE082E191E0F1CF833099F70E947C
:200AA0009F01DC011296ED90FC908E010F5F1F4F6801E114F10479F0D701ED91FC91068078
:200AC000F781E02DB801C7010995080F111DF701E084F184EECFD8011C92F6010190002070
:200AE000E9F73197BF016C197D0940E0C601C6CF6CEF70E0FB01449150E080E80E949502BA
:200B000009CF973009F4BECF983021F481E08093F10000CF993009F0FDCE837009F0B2CFA1
:200B2000EDE0F1E081E031E096E32191222371F08093E9003093EB00DF0111972C91209332
:200B4000EC009093ED008F5F873079F78EE78093EA001092EA008F8980939401DBCE8B8D05
:200B60009C8D1092E90010923201109231019093300180932F01898D811192C08E899D894A
:200B8000913A49F4813209F07DCF47E050E064E071E080E0B3CF913209F074CF833269F476
:200BA0008F89988DB0E0A0E08093000190930101A0930201B0930301ADCE803269F4809197
:200BC000E80082FFFCCF67E084E091E00E94EC028BEF8093E8009ECE823209F09BCE8F8926
:200BE00080930B01EEEFFFE7859194918B3F9C4D51F1E0E0F8E08091040190910501A091DD
:200C00000601B0910701803B9440A105B105F1F480910B0180FD1AC0EE3F8AE0F80789F52C
:200C200087E797E791838083809160008093330188E19BE00FB6F894A895809360000FBE47
:200C40009093600067CEEEEFFAE0D5CF808191818737974709F05ECEA89580916000886116
:200C6000809360008091330180936000EE3F2AE0F20789F08091FE0A9091FF0A9183808346
:200C800049CE808191818737980751F29093FF0A8093FE0AC5CF1092FF0A1092FE0A3ACE52
:200CA0000E949F01DC0112960D911C910115110509F4E8CED801ED91FC910190F081E02D50
:200CC000BE016B5E7F4FC8010995811123CEF80100851185EBCF181619060CF41BCED2CE30
:200CE000F1E0FF12BECE60E071E004CF1F920F920FB60F9211242F933F938F939F93AF930B
:200D0000BF938091270190912801A0912901B0912A013091260123E0230F2D3758F50196D2
:200D2000A11DB11D209326018093270190932801A0932901B0932A0180912B0190912C0170
:200D4000A0912D01B0912E010196A11DB11D80932B0190932C01A0932D01B0932E01BF91EF
:200D6000AF919F918F913F912F910F900FBE0F901F90189526E8230F0296A11DB11DD2CFE7
:200D8000E7E3F1E01382128288EE93E0A0E0B0E084839583A683B78387E191E09183808324
:200DA0008FEF9FEF958784870895789484B5826084BD84B5816084BD85B5826085BD85B508
:200DC000816085BD80916E00816080936E0010928100809181008260809381008091810052
:200DE0008160809381008091800081608093800080919100826080939100809191008160CE
:200E000080939100809190008160809390008091C10084608093C1008091C10082608093B8
:200E2000C1008091C10081608093C1008091C30081608093C3008091C00082608093C00059
:200E40008091C20081608093C20080917A00846080937A0080917A00826080937A00809102
:200E60007A00816080937A0080917A00806880937A00109294011092340110923601809192
:200E8000D70081608093D70080EA8093D80089B5806189BD89B5826089BD09B400FEFDCF09
:200EA00061E070E080E090E00E941E038091D8008F7C80618093D8008091E000807F80934B
:200EC000E0008091E1008E7E8093E1008DE08093E200559A209AE9E6F1E02491EAE4F1E041
:200EE0008491882399F090E0880F991FFC01E455FF4FA591B491FC01E15DFE4F8591949128
:200F00008FB7F894EC91E22BEC938FBFC0E0D0E081E00E94F80068EE73E080E090E00E9442
:200F20001E0380E00E94F80068EE73E080E090E00E941E03209761F30E940000E9CFEE0FF8
:200F4000FF1F0590F491E02D0994F894FFCFFFFFFFFF00E100000000000000C180810000B6
:200F60000000000000B3015003D401C9011A02D801F60100FFFFFFFFFFFFFFFFFFFFFFFFEB
:200F8000EC91E22BEC938FBF1092800081E08093810010928200109285001092840081E011
:200FA00090E0909389008093880080916F00826080936F00C0E0D0E02097F1F30E94000009
:200FC000FBCFEE0FFF1F0590F491E02D0994F894FFCFFFFFFFFF00E100000000000000C170
:200FE0008081000000000000004E01D1026F016401B5017301910100FFFFFFFFFFFFFFFF45
:201000008C0188E299E0B801A70122E030E00E944B15C801B70120E030E048E950E40E9453
:20102000601A87FD0AC0C801B70120E030E048EA50E40E94AF1B1816A4F481E090E09093CB
:2010400096088093950888E299E061EB72E00E94641488E299E0B801A70122E030E00E94AF
:201060004B1584E190E00E9468072AE037ED43E25DE30E94FC197B018C0188E299E0B8013B
:20108000A70122E030E00E944B15C801B7012CEE31E548E450E40E94601A87FD0AC0C80150
:2010A000B7012BE734E14EE550E40E94AF1B1816A4F481E090E0909396088093950888E20C
:2010C00099E065EC72E00E94641488E299E0B801A70122E030E00E944B1586E190E00E9409
:2010E00068072AE037ED43EA5CE30E94FC197B018C0188E299E0B801A70122E030E00E942F
:201100004B15C801B70123EC35EF48E750E40E94601A87FD0AC0C801B7012AE939E949E807
:2011200050E40E94AF1B1816A4F481E090E0909396088093950888E299E06AED72E00E94D9
:20114000641488E299E0B801A70122E030E00E944B158091950890919608892BE9F088E25B
:2011600099E060EF72E00E9464148091F30761E00E94BD1168EE73E080E090E00E9446100E
:201180008091F30760E00E94BD1168EE73E080E090E00E944610E9CF1F910F91FF90EF900D
:2011A000089588E299E060E875E20E94201280E00E94F5108091F30761E00E9430118091F5
:2011C000F50761E00E9430118091F30760E00E94BD118091F50760E00E94BD110E941606B9
:2011E0006AE070E080E090E00E9446100E949D0564E670E080E090E00E9446100E94A70797
:201200006AE070E080E090E00E9446100E945C0664E670E080E090E00E9446100E9414054B
:2012200064E670E080E090E00E94461008950F931F93CF93DF93FC01738D76957170A68573
:20124000B7859585772329F08C91892309F454C004C08C91892309F04FC08389948920E0ED
:2012600001972FEF8F3F9207D9F7C589D689A685B785158560E031E040E050E000E0CE0183
:20128000202F01972FEF8F3F9207D9F78C91812311F0632B03C0832F80956823330F4F5FBD
:2012A0005F4F4830510559F78789908D20E001972FEF8F3F9207D9F7711160958091D908DF
:2012C0002091DA0890E001968F73907030E08217930779F0E091D908F0E0E756F74F60833E
:2012E0008091D90890E001968F7390708093D90803C0838D8160838FDF91CF911F910F9119
:2013000008951F920F920FB60F9211242F933F934F935F936F937F938F939F93AF93BF93DF
:20132000EF93FF938091970890919808009711F00E941709FF91EF91BF91AF919F918F91DE
:201340007F916F915F914F913F912F910F900FBE0F901F901895CF92DF92EF92FF920F9330
:201360001F93CF93DF93EC017A018B011A8E198E188E1F8A1E8A1D8A1C8A1B8A20E030E0AB
:201380006901CC0CDD1CC20ED31EB601660F771F660F771FAB0144555F4FFA01859195915A
:2013A000A591B4918E159F05A007B107E9F4FB01E055FF4F859194919C8B8B8BFB01EE54FA
:2013C000FF4F859194919E8B8D8BFB01EC54FF4F85919491988F8F8BFB01EA54FF4F85919F
:2013E00094919A8F898F06C02F5F3F4F2D30310509F0C6CF8F89988D892B09F457C09C855E
:20140000892F8850843038F08650843020F09A51933008F043C08091680081608093680048
:201420002C85922F9850943090F0822F8E50843070F08C50833008F451C0A0E0B0E083300C
:2014400018F0E0E0F0E007C0EBE6F0E004C0EBE6F0E0ABE6B0E04081943020F430E02450E9
:20146000304013C02E3011F488E016C02F3011F482E012C0203111F484E00EC0213111F411
:2014800081E00AC030E02651304081E090E002C0880F991F2A95E2F7842B8C93898D9A8DA5
:2014A00020E001972FEF8F3F9207D9F780919708909198088C179D07A1F08B8D8E7F8B8FB7
:2014C0009FB7F8941092D9088091D9088093DA08D0939808C09397089FBF03C0ABE6B0E089
:2014E000AECFDF91CF911F910F91FF90EF90DF90CF900895FC012485922F9850943038F09B
:20150000822F8E50843018F08C50833030F540916B00943020F430E02450304013C02E3093
:2015200011F487EF17C02F3011F48DEF13C0203111F48BEF0FC0213111F48EEF0BC030E058
:201540002651304081E090E002C0880F991F2A95E2F78095842380936B000895FC0180E1F5
:2015600098E091838083CF010E947A0A089520919708309198082817390731F49091DA08F1
:201580008091D908981719F42FEF3FEF0FC0E091DA08F0E0E756F74F20818091DA0890E0D8
:2015A00001968F7390708093DA0830E0C901089520919708309198082817390719F020E0ED
:2015C00030E00EC08091D9082091DA0890E0805C9F4F821B910960E470E00E94391C9C010F
:2015E000C90108950F931F93DC0159968D919C915A97892B49F481E090E013969C938E936D
:20160000129720E030E097C00FB7F8945B968C915B975196ED91FC91529750962C91509703
:2016200081FF8DC08081822B808359968D919C915A97059620E001972FEF8F3F9207D9F779
:201640005B968C915B9781FF35C031E040E050E070E010E0832F90E0862397235196ED918A
:20166000FC91529750962C915097892B29F0808120952823208303C08081822B8083599696
:201680008D919C915A97212F01972FEF8F3F9207D9F7330F4F5F5F4F48305105D9F65196AF
:2016A000ED91FC915297908150968C9150978095892333C031E040E050E070E010E0832F34
:2016C00090E0862397235196ED91FC91529750962C915097892B21F08081822B808304C098
:2016E000808120952823208359968D919C915A97212F01972FEF8F3F9207D9F7330F4F5FEE
:201700005F4F48305105D9F65196ED91FC915297808150969C915097892B80830FBF599634
:201720008D919C915A9720E001972FEF8F3F9207D9F721E030E0C9011F910F9108958081B7
:2017400020952823208371CF20919708309198082817390749F49FB7F8941092D9088091C3
:20176000D9088093DA089FBF089520919708309198082817390731F49091DA088091D9084E
:20178000981719F42FEF3FEF0AC0E091DA08F0E0E756F74F8081282F332727FD3095C9016C
:2017A00008951F93CF93DF93EC01162F862F60E00E9430118B8D81FD04C0812F61E00E940F
:2017C000BD111C87212F30E0C90180579E4FFC0184918D872E583E4FF9016491E62FF0E09D
:2017E000EE0FFF1FEC59FE4F859194919F878E87DF91CF911F910895FF920F931F938C0137
:20180000F62E862F61E00E9430118F2D61E00E94BD118F2D90E0FC01E057FE4FE491D80163
:201820005096EC9350978E589E4FFC016491E62FF0E0EE0FFF1FEA5AFE4F859194915296E3
:201840009C938E9351971F910F91FF900895FF920F931F938C01F62EFC011382128288EEA2
:2018600093E0A0E0B0E084839583A683B78380E198E091838083148A138A168A158A108E5B
:20188000178A128E118E838D2170220F8C7F822B838FC801642F0E94FC0BC8016F2D0E94C0
:2018A000D10B1F910F91FF90089561E073E04FE053E025E030E00E94220F892B19F420E031
:2018C00030E008C088E299E062E173E00E945E152FEF3FEFC901089561E573E00E94930E13
:2018E00080E090E00895CF93DF93EC010E94390FCE010E94390F8E8D8823B1F4CE016AE291
:2019000075E04FE053E025E030E00E94220F892B49F088E299E069E375E00E945E152FEF84
:201920003FEF04C081E08E8F20E030E0C901DF91CF910895EF92FF920F931F93DF93CF93B6
:20194000CDB7DEB76E970FB6F894DEBF0FBECDBF7C016730710590F500D000D000D0EDB7FF
:20196000FEB731968E010F5F1F4FADB7BEB712961C930E93119783EA95E093838283758312
:2019800064830E9409028DB79EB706960FB6F8949EBF0FBE8DBFC701B80144EB55E025E0CD
:2019A00030E00E94220F892B49F088E299E067EB75E00E945E152FEF3FEF02C020E030E09A
:2019C000C9016E960FB6F894DEBF0FBECDBFCF91DF911F910F91FF90EF900895EF92FF9215
:2019E0000F931F93DF93CF93CDB7DEB76E970FB6F894DEBF0FBECDBF7C01DC015E968C91EF
:201A0000882309F446C0CB018B5693408E3C910508F042C000D000D000D0EDB7FEB73196AE
:201A20008E010F5F1F4FADB7BEB712961C930E9311978DEC95E093838283758364830E9438
:201A40000902EDB7FEB736960FB6F894FEBF0FBEEDBFC701B80144EB55E025E030E00E9433
:201A6000220F892B29F088E299E06CED75E00FC0C70160EF75E044EB55E025E030E00E9481
:201A8000220F892B49F088E299E06CEF75E00E945E152FEF3FEF02C020E030E0C9016E9694
:201AA0000FB6F894DEBF0FBECDBFCF91DF911F910F91FF90EF900895CF93DF93EC018E8D38
:201AC0008823B1F4CE0160E376E044EB55E025E030E00E94220F892B49F088E299E06EE3E1
:201AE00076E00E945E152FEF3FEF04C081E08E8F20E030E0C901DF91CF910895CF93DF93D2
:201B0000EC016115710519F420E030E00FC0DB010D900020E9F71197A61BB70BE881F98179
:201B20000280F381E02DAD0109959C01C901DF91CF910895CF92DF92EF92FF920F931F934A
:201B4000DF93CF93CDB7DEB768970FB6F894DEBF0FBECDBF7C016B0162EF76E04EEF56E04F
:201B600025E030E00E94220F892B49F088E299E061E077E00E945E152FEF3FEF2CC068EE72
:201B800073E080E090E00E94461000D000D000D0EDB7FEB731968E010F5F1F4FADB7BEB756
:201BA00012961C930E93119786E097E093838283D582C4820E9409028DB79EB706960FB649
:201BC000F8949EBF0FBE8DBFC7010296B8010E947E0D20E030E0C90168960FB6F894DEBFF7
:201BE0000FBECDBFCF91DF911F910F91FF90EF90DF90CF900895BF92CF92DF92EF92FF92BE
:201C00000F931F93DF93CF93CDB7DEB7A0970FB6F894DEBF0FBECDBF6C018E010F5F1F4F2D
:201C2000B80140E250E00E94870EEE24FF24B02E012FC6016AE777E00E94930EC6016B2D0E
:201C4000702F40E250E025E030E00E94420F8B2D902F65E877E00E94EF01009719F020E03E
:201C600030E00FC00894E11CF11C68EE73E080E090E00E94461083E0E816F104D1F62FEF33
:201C80003FEFC901A0960FB6F894DEBF0FBECDBFCF91DF911F910F91FF90EF90DF90CF90D3
:201CA000BF9008950F931F93182F092F62E977E00E94930E64E670E080E090E00E9446101E
:201CC000812F902F62E977E00E94930E64E670E080E090E00E944610812F902F67E977E038
:201CE0000E94930E812F902F0E94FB0D892B19F420E030E008C088E299E063EA77E00E94C6
:201D00005E152FEF3FEFC9011F910F91089580E090E005C0FB01E80FF91F108201968417E9
:201D20009507C4F30895CF93DF93EC016115710579F0DB010D900020E9F71197A61BB70BF9
:201D4000EA81FB810280F381E02D0296AD010995DF91CF9108952F923F924F925F926F92E3
:201D60007F928F929F92AF92BF92CF92DF92EF92FF920F931F93CF93DF936C015B018A010E
:201D8000DB010D900020E9F77D010894E108F108E61AF70A0E9438101B012C0122E030E088
:201DA000C20ED31E88EE93E0DC010A9FC0010B9F900D1A9F900D11243C0188249924C0E01A
:201DC000D0E0C6010E94D80A892B81F0C6010E94B70AF501EC0FFD1F9081981719F0C0E043
:201DE000D0E001C02196CE15DF0589F00E9438106219730984099509661677068806990649
:201E000000F72FEF3FEF0AC0C6010E94B70AC6010E94D80A892BC1F720E030E0C901DF918A
:201E2000CF911F910F91FF90EF90DF90CF90BF90AF909F908F907F906F905F904F903F908F
:201E40002F900895CF92DF92EF92FF920F931F938C017A0169010E94930EC801B701A60111
:201E60000E94AB0E1F910F91FF90EF90DF90CF9008956DED77E042EE57E025E030E00E946F
:201E8000220F08952F923F924F925F926F927F928F929F92AF92BF92CF92DF92EF92FF9236
:201EA0000F931F93CF93DF937C011B012A0189010E9438103B014C0122E030E0E20EF31E26
:201EC00088EE93E09C01029FC001039F900D129F900D11245C01CC24DD24C0E0D0E010C0EA
:201EE000C7010E94B70A8D3011F08A3009F484E2F101EC0FFD1F80832196C415D5059CF4D6
:201F0000C7010E94D80A892B59F7C415D5055CF40E9438106619770988099909A616B706D9
:201F2000C806D90668F764EF71E080E090E00E94461003C0C7010E94B70AC7010E94D80AEF
:201F4000892BC1F780E090E0DF91CF911F910F91FF90EF90DF90CF90BF90AF909F908F906D
:201F60007F906F905F904F903F902F900895CF93DF93EC018CE060E00E94301164EF71E066
:201F800080E090E00E9446108CE00E94F011892B21F560E273E080E090E00E94461088813A
:201FA00061E00E94BD1168EC70E080E090E00E944610888160E00E94BD1160ED77E080E047
:201FC00090E00E944610888161E00E94BD1168EB7BE080E090E00E944610DF91CF910895FC
:201FE0001F920F920FB60F9211242F933F938F939F93AF93BF938091DF089091E008A09146
:20200000E108B091E2083091E3080196A11DB11D232F2D5F2D3720F02D570196A11DB11DE4
:202020002093E3088093DF089093E008A093E108B093E2088091DB089091DC08A091DD08A5
:20204000B091DE080196A11DB11D8093DB089093DC08A093DD08B093DE08BF91AF919F9138
:202060008F913F912F910F900FBE0F901F9018958FB7F8942091DF083091E0084091E1087C
:202080005091E2088FBFB901CA0108959B01AC017FB7F8948091DB089091DC08A091DD08EB
:2020A000B091DE0866B5A89B05C06F3F19F00196A11DB11D7FBFBA2FA92F982F8827860FF2
:2020C000911DA11DB11D62E0880F991FAA1FBB1F6A95D1F7BC012DC0FFB7F8948091DB08EB
:2020E0009091DC08A091DD08B091DE08E6B5A89B05C0EF3F19F00196A11DB11DFFBFBA2FFA
:20210000A92F982F88278E0F911DA11DB11DE2E0880F991FAA1FBB1FEA95D1F7861B970B5C
:20212000885E9340C8F2215030404040504068517C4F211531054105510571F6089578949F
:2021400084B5826084BD84B5816084BD85B5826085BD85B5816085BDEEE6F0E08081816087
:202160008083E1E8F0E01082808182608083808181608083E0E8F0E0808181608083E1E91F
:20218000F0E0808182608083808181608083E0E9F0E0808181608083E1ECF0E080818460A4
:2021A0008083808182608083808181608083E3ECF0E0808181608083E0ECF0E0808182604E
:2021C0008083E2ECF0E0808181608083EAE7F0E08081846080838081826080838081816028
:2021E00080838081806880830895809301080895823108F08251E82FF0E0E453FE4FE4913C
:2022000020917B008E2F86958695869590E08170907035E0880F991F3A95E1F72F7D282B19
:2022200020937B00E770809101088295880F880F807C8E2B80937C0080917A0080648093F4
:202240007A0080917A0086FDFCCF2091780040917900942F80E030E0282B392BC901089567
:20226000CF93DF93482F50E0CA0180579E4FFC0134914E585E4FFA018491882369F190E0BA
:20228000880F991FFC01E85BFE4FA591B491FC01EA5AFE4FC591D491662351F42FB7F8945E
:2022A0008C91932F909589238C93888189230BC0623061F42FB7F8948C91932F90958923C6
:2022C0008C938881832B88832FBF06C09FB7F8948C91832B8C939FBFDF91CF91089588301A
:2022E00071F1893068F4823031F1833020F4813009F042C01DC0833089F08430E9F512C0B3
:202300008B3059F18C3028F48930E9F08A30A1F51EC08C3031F18E3079F529C0809180009C
:202320008F7703C0809180008F7D80938000089584B58F7702C084B58F7D84BD08958091D2
:2023400090008F7707C0809190008F7D03C080919000877F8093900008958091C0008F77F2
:2023600003C08091C0008F7D8093C00008958091C200877F8093C2000895FF920F931F931D
:20238000F62E482F50E0CA0182559E4FFC012491CA0180579E4FFC0114914E585E4FFA01B2
:2023A00004910023C9F0222319F0822F0E946F11E02FF0E0EE0FFF1FEA5AFE4FA591B49185
:2023C0009FB7F894FF2021F48C911095812302C08C91812B8C939FBF1F910F91FF900895FD
:2023E0000F931F93482F50E0CA0182559E4FFC012491CA0180579E4FFC0104914E585E4F2D
:20240000FA011491112319F420E030E015C0222319F0822F0E946F11812F90E0880F991F66
:202420008C599E4FFC01A591B4918C9120E030E0802311F021E030E0C9011F910F910895B9
:20244000089520912409309125098091260990912709281B390B2F733070C90108952091A0
:2024600024093091250980912609909127092817390719F42FEF3FEF09C0E0912609F091ED
:202480002709EC51F74F8081282F30E0C9010895209124093091250980912609909127095C
:2024A0002817390719F42FEF3FEF13C0E0912609F0912709EC51F74F20818091260990919B
:2024C000270901968F739070909327098093260930E0C901089510922B0910922A0988EE06
:2024E00093E0A0E0B0E080932C0990932D09A0932E09B0932F0980E298E090932909809391
:20250000280908950F931F93DF93CF930F92CDB7DEB78C01698380910908882369F083E009
:20252000BE016F5F7F4F41E050E00E9443161816190614F49C0107C081E090E0F80193835B
:20254000828320E030E0C9010F90CF91DF911F910F91089583E00E941A160895CF93DF939A
:2025600012C082E00E94A5152FEF8F3F9207C9F0E0912409F0912509EC51F74F8083D09357
:202580002509C0932409C0912409D09125092196CF73D0708091260990912709C817D907F7
:2025A00001F7DF91CF910895FC0180818E5F808380E868ED71E042E450E00E94BE15089552
:2025C000FC0181819081913A59F4813209F04CC080E062E078E047E050E00E94BE1542C053
:2025E000913209F041C0803239F482E098E067E070E00E94021636C0823209F035C0828179
:20260000809309088091020890910308A0910408B0910508805B9440A040B04019F5809126
:20262000090880FD12C087E797E790930108809300082BE088E190E00FB6F894A895809382
:2026400060000FBE209360000DC088E10FB6F89480936000109260000FBEA8951092010889
:202660001092000881E0089580E00895CF93DF930E949F108EE399E00E9425160E94D1084E
:20268000C0E0D0E00E94AA042097E1F30E940000F9CFCF92DF92EF92FF920F931F93CF930B
:2026A000DF937C016B018A01C0E0D0E00FC0D6016D916D01D701ED91FC910190F081E02DE0
:2026C000C7010995C80FD91F015010400115110571F7CE01DF91CF911F910F91FF90EF9093
:2026E000DF90CF900895EF92FF920F931F938C01DC01ED91FC910190F081E02D6DE009959A
:202700007C01D801ED91FC910190F081E02DC8016AE009959C012E0D3F1DC9011F910F914A
:20272000FF90EF9008954F925F927F928F929F92AF92BF92CF92DF92EF92FF920F931F93EF
:20274000DF93CF93CDB7DEB7A1970FB6F894DEBF0FBECDBF2C01742ECB01223008F42AE01A
:2027600019A231E2C32ED12CCC0EDD1E822E9924AA24BB24672D752FA50194010E944C1C31
:2027800079018A01C801B701A50194010E941A1C472D461B0894C108D1084A3014F4405D6E
:2027A00001C0495CF6014083E114F1040105110521F07E2C5F2DC801DDCFC201B6010E941B
:2027C0007E0DA1960FB6F894DEBF0FBECDBFCF91DF911F910F91FF90EF90DF90CF90BF90A5
:2027E000AF909F908F907F905F904F900895DC012115310541F4ED91FC910190F081E02D3A
:20280000642F099508950E9493130895CF92DF92EF92FF920F931F936C01E62E9A01FF248E
:2028200000E010E0B801A7010E94F7138C01C6010E947313080F191FC8011F910F91FF9048
:20284000EF90DF90CF900895CF92DF92EF92FF920F931F93CF93DF93EC016A017B01211578
:20286000310541F4E881F9810190F081E02D642F09951FC02A303105D1F477FF17C0E881E0
:20288000F9810190F081E02D6DE209958C0144275527BA014C195D096E097F09CE012AE0F0
:2028A0000E9493139801280F391F04C02AE00E9493139C01C901DF91CF911F910F91FF907C
:2028C000EF90DF90CF9008950E947E0D08957F928F929F92AF92BF92CF92DF92EF92FF926B
:2028E0000F931F93CF93DF934C017A018B01722ECB01BA01A80197010E94161C882321F064
:20290000C40165EE77E021C0C0E0D0E057016801E894D7F8C601B5012FEF3FEF4FE75FE7C6
:202920000E94161C882351F4C601B5012FEF3FEF4FE75FE70E94601A181614F0C1E0D0E0EF
:20294000219739F0C40169EE77E00E947E0DEC0193C0C801B7012FEF3FEF4FE75FE40E94CE
:20296000AF1B181654F0C801B7012FEF3FEF4FE75FEC0E94601A882324F4C4016DEE77E077
:20298000E4CFC801B70120E030E040E050E00E94601A87FD03C0C0E0D0E00EC0D401ED91CF
:2029A000FC910190F081E02DC4016DE20995EC0117FB109517F9109520E030E040E05FE3FE
:2029C000DD240BC0CA01B90120E030E040E251E40E94641A9B01AC01D394D71498F3C80130
:2029E000B7010E94FC195B016C010E94D11A7B018C01C401B801A7012AE030E00E94F7131D
:202A0000C80FD91F772039F0C40161EF77E00E947E0DC80FD91FC801B7010E94FD1A9B01E9
:202A2000AC01C601B5010E94FB1924C020E030E040E251E40E94B31B7B018C010E94CC1A6A
:202A40005B016C01CC24B7FCC094DC2CC401B601A5012AE030E00E942414C80FD91FC60102
:202A6000B5010E94FF1A9B01AC01C801B7010E94FB197A947720D1F6CE01DF91CF911F91AA
:202A80000F91FF90EF90DF90CF90BF90AF909F908F907F900895EF92FF920F931F937C014F
:202AA0000E9467148C01C7010E947313080F191FC8011F910F91FF90EF900895EF92FF9257
:202AC0000F931F937C010E947E0D8C01C7010E947313080F191FC8011F910F91FF90EF9005
:202AE0000895282F809138098823C1F057FF1AC015C02898909337098091F1008193E217FD
:202B0000F307B9F74115510539F08091F200882319F48BE68093E800AFBF02C04FEF5FEF53
:202B2000CA010895AFB7F89427702093E9008091F200282F30E0241735070CF4A901FB0181
:202B40009B01240F311D94E6DACFDF93CF930F92CDB7DEB7BE016F5F7F4F41E050E00E9459
:202B60007115019719F02FEF3FEF03C08981282F30E0C9010F90CF91DF910895FF920F93A5
:202B80001F93F82E142F052F40913B0950913C09212F302FC901DC01FB016EEF29C0F7FE1E
:202BA00002C0949101C090812091390930913A0924173507ACF48091E8008570E1F380917B
:202BC000E80082FF03C02FEF3FEF17C09093F100C90101968F739070892B11F46093E8009B
:202BE0002F5F3F4F30933A0920933909119731961097A9F6812F902F9C01C9011F910F91E3
:202C0000FF9008959C018091E80082FFFCCFF901260F311D03C08091F1008193E217F3075D
:202C2000D1F7289884E6809337098BEF8093E800CB0108958093E9008091F200882319F0BE
:202C40008AE38093E800089508951092380981E08093D70080EA8093D80082E189BD09B4E9
:202C600000FEFDCF61E070E080E090E00E94461080E98093D8008CE08093E2001092E000FA
:202C8000559A209A08955F926F927F928F929F92AF92BF92CF92DF92EF92FF920F931F93CF
:202CA000CF93DF93E82E842E752E80913809882371F18B01242F352FC901EC017AEFF72EEE
:202CC00067E0962E9E2050E4552E8E2D90E040E2A42EB12CA822B9223AE3632E20E4C22E31
:202CE000D12CC822D92258C09FB7F8949092E9008091E80085FD02C020E004C08091F200E9
:202D0000252D281B9FBF222361F4FA9419F42FEF3FEF4DC061E070E080E090E00E944610D9
:202D20003BC0822F90E0C817D9070CF42C2FC21BD1094FB7F8949092E900A114B10421F48A
:202D400006C01092F10021502223D9F719C0E7FC03C0F801922F10C0C801322F06C0FC019E
:202D60000196E491E093F10031503323C1F706C081918093F10091509923D1F7020F111DD4
:202D80008091E80085FF05C0209729F4C114D10411F06092E8004FBF209709F0A5CF5D9871
:202DA00084E680933609282D372DC9019C01C901DF91CF911F910F91FF90EF90DF90CF9071
:202DC000BF90AF909F908F907F906F905F9008951F920F920FB60F9211242F933F934F931A
:202DE0005F936F937F938F939F93AF93BF93EF93FF938091E1001092E100982F83FF0FC044
:202E00001092E90081E08093EB001092EC0082E38093ED001092380988E08093F00092FFF6
:202E200034C083E08093E9008091F200882319F08AE38093E8008FB7F89492E09093E900D0
:202E40009091F2008FBF992321F088E299E00E94AE1280913609882351F0809136098150A2
:202E60008093360980913609882309F45D9A80913709882351F0809137098150809337095F
:202E800080913709882309F4289AFF91EF91BF91AF919F918F917F916F915F914F913F91D7
:202EA0002F910F900FBE0F901F9018950F931F93DF93CF930F92CDB7DEB719828E010F5F71
:202EC0001F4FC8010E94D412C8010E94EF19898190E00F90CF91DF911F910F9108951F9239
:202EE0000F920FB60F921124EF92FF921F932F933F934F935F936F937F938F939F93AF93C0
:202F0000BF93EF93FF93DF93CF93CDB7DEB76197DEBFCDBF1092E9008091E80083FF0FC167
:202F2000FE0131969E01275F3F4F03C08091F1008193E217F307D1F7289884E68093370907
:202F400082EF8093E800998197FF05C08091E80080FFFCCF03C08EEF8093E800292F30E0AA
:202F6000C90180769070892B09F0C2C08A81882329F41092F1001092F100D6C0813009F425
:202F8000D3C0833009F4D0C0853049F48091E80080FFFCCF8B8180688093E300C5C0863004
:202FA00009F07CC01C81EF80F8841230C1F51092E90010923A091092390910923C0910927F
:202FC0003B090E94561799E0FE013996DF01292F1D922A95E9F799871A8791E09E8790E802
:202FE000988B9AEF998B2091390930913A09275F3F4F3C872B878D871092E90010923A09FD
:2030000010923909F0923C09E0923B0980E0BF0149E050E00E94BE150E94561785C010926B
:20302000E90010923A0910923909F0923C09E0923B09123241F482E290E00E94E719892BBE
:2030400009F476C071C0113079F488E0E816F10419F481E080933D0980913D09882309F041
:203060006BC0E8E5F2E013C0133009F061C08B81882319F4EAE1F2E00AC0823019F4EEE19D
:20308000F2E005C0813009F053C0E0E4F2E0449180E8BF0150E00E94BE1546C0873009F4EA
:2030A00047C0883021F481E08093F1003DC08930D9F523703070232BD9F5EDE7F2E091E0ED
:2030C00031E026E39093E9003093EB0084918093EC002093ED009F5F3196953099F78EE7D9
:2030E0008093EA001092EA008B81809338091CC08F8198851092E90010923A09109239098A
:2031000090933C0980933B098D81882329F4CE0101960E94E01206C0823051F4CE010196FD
:203120000E94B818882321F08EEF8093E80007C081E28093EB0003C0EAE6F2E0A8CF6196EE
:20314000DEBFCDBFCF91DF91FF91EF91BF91AF919F918F917F916F915F914F913F912F9116
:203160001F91FF90EF900F900FBE0F901F901895FC0191818081813A31F4913089F080E0A0
:20318000933089F40DC0813269F49B3021F4828180930A0805C09A3029F4828180930B0835
:2031A00081E0089580E00895EF92FF920F931F938C01E62EDC01ED91FC910480F581E02D1E
:2031C0000995F82ED801ED91FC910680F781E02DC8016E2D09958F2D90E01F910F91FF902F
:2031E000EF90089510923F09109243091092420982E398E090934109809340090895EF922A
:20320000FF920F931F93DF93CF930F92CDB7DEB789838B017A0184E0BE016F5F7F4F41E048
:2032200050E00E94431684E4B801A7010E9443160F90CF91DF911F910F91FF90EF90089535
:2032400082E048E050E00E94FF180895FC0116821782108611861286138614823496BF01B2
:203260000E9420190895DC01683810F0685829C0E62FF0E067FF13C0E058F04081E090E059
:2032800002C0880F991FEA95E2F7809514962C911497282314962C93149760E012C0E150FC
:2032A000FD4F6491662319F420E030E01DC067FF08C014968C9114978D7F14968C9314972A
:2032C0006F77FD0190E0662321F08681861709F416829F5F31969630B1F7CD011496BD015E
:2032E0000E94201921E030E0C9010895CF93DF93DC01683810F0685825C0E62FF0E067FF3A
:2033000012C0E058F04081E090E002C0880F991FEA95E2F714962C911497282B14962C936B
:20332000149760E00FC0E150FD4F64916623D9F167FF08C014968C911497826014968C93C3
:2033400014976F7716968C9116978617A9F117968C911797861781F118968C911897861791
:2033600059F119968C911997861731F11A968C911A97861709F11B968C911B978617E1F0C5
:20338000ED01E0E0F0E09E2F8E81882321F4EA0FFB1F668306C09F5F31962196E630F105C9
:2033A00091F7963049F481E090E013969C938E93129720E030E007C0CD011496BD010E9460
:2033C000201921E030E0C901DF91CF91089580E861E872E045E650E00E94BE150895FC01FF
:2033E00080818F5F808380E866EE72E049E150E00E94BE1508955058BB27AA270ED075C1F2
:2034000066D130F06BD120F031F49F3F11F41EF45BC10EF4E095E7FB51C1E92F77D180F395
:20342000BA17620773078407950718F071F49EF58FC10EF4E0950B2EBA2FA02D0B01B90135
:2034400090010C01CA01A0011124FF27591B99F0593F50F4503E68F11A16F040A22F232FC4
:20346000342F4427585FF3CF469537952795A795F0405395C9F77EF41F16BA0B620B730B37
:20348000840BBAF09150A1F0FF0FBB1F661F771F881FC2F70EC0BA0F621F731F841F48F495
:2034A000879577956795B795F7959E3F08F0B3CF9395880F08F09927EE0F97958795089560
:2034C000D9D008F481E008950CD00FC107D140F0FED030F021F45F3F19F0F0C0511139C1DF
:2034E000F3C014D198F39923C9F35523B1F3951B550BBB27AA2762177307840738F09F5FAE
:203500005F4F220F331F441FAA1FA9F333D00E2E3AF0E0E830D091505040E695001CCAF7B8
:2035200029D0FE2F27D0660F771F881FBB1F261737074807AB07B0E809F0BB0B802DBF01A2
:20354000FF2793585F4F2AF09E3F510568F0B6C000C15F3FECF3983EDCF38695779567958B
:20356000B795F7959F5FC9F7880F911D9695879597F90895E1E0660F771F881FBB1F621736
:2035800073078407BA0720F0621B730B840BBA0BEE1F88F7E095089504D06894B111D9C03D
:2035A0000895BCD088F09F5790F0B92F9927B751A0F0D1F0660F771F881F991F1AF0BA9530
:2035C000C9F712C0B13081F0C3D0B1E00895C0C0672F782F8827B85F39F0B93FCCF38695C8
:2035E00077956795B395D9F73EF490958095709561957F4F8F4F9F4F0895E89409C097FB36
:203600003EF490958095709561957F4F8F4F9F4F9923A9F0F92F96E9BB279395F6958795FC
:2036200077956795B795F111F8CFFAF4BB0F11F460FF1BC06F5F7F4F8F4F9F4F16C088238D
:2036400011F096E911C0772321F09EE8872F762F05C0662371F096E8862F70E060E02AF001
:203660009A95660F771F881FDAF7880F9695879597F90895990F0008550FAA0BE0E8FEEF0F
:2036800016161706E807F907C0F012161306E407F50798F0621B730B840B950B39F40A260B
:2036A00061F0232B242B252B21F408950A2609F4A140A6958FEF811D811D089597F99F67E4
:2036C00080E870E060E008959FEF80EC089500240A941616170618060906089500240A9427
:2036E00012161306140605060895092E0394000C11F4882352F0BB0F40F4BF2B11F460FFAF
:2037000004C06F5F7F4F8F4F9F4F089557FD9058440F551F59F05F3F71F04795880F97FB90
:20372000991F61F09F3F79F087950895121613061406551FF2CF4695F1DF08C01616170634
:203740001806991FF1CF86957105610508940895E894BB2766277727CB0197F908958ADFB8
:2037600008F48FEF08950BD0C0CFB1DF28F0B6DF18F0952309F0A2CFA7CF1124EACFC6DF58
:20378000A0F3959FD1F3950F50E0551F629FF001729FBB27F00DB11D639FAA27F00DB11D08
:2037A000AA1F649F6627B00DA11D661F829F2227B00DA11D621F739FB00DA11D621F839F1A
:2037C000A00D611D221F749F3327A00D611D231F849F600D211D822F762F6A2F11249F57BB
:2037E00050408AF0E1F088234AF0EE0FFF1FBB1F661F771F881F91505040A9F79E3F51050E
:2038000070F05CCFA6CF5F3FECF3983EDCF3869577956795B795F795E7959F5FC1F7FE2B30
:20382000880F911D9695879597F9089523DF880B990B0895629FD001739FF001829FE00D16
:20384000F11D649FE00DF11D929FF00D839FF00D749FF00D659FF00D9927729FB00DE11D72
:20386000F91F639FB00DE11DF91FBD01CF011124089597FB092E07260AD077FD04D02ED0E5
:2038800006D000201AF4709561957F4F0895F6F7909581959F4F0895A1E21A2EAA1BBB1BA5
:2038A000FD010DC0AA1FBB1FEE1FFF1FA217B307E407F50720F0A21BB30BE40BF50B661F16
:2038C000771F881F991F1A9469F760957095809590959B01AC01BD01CF010895AA1BBB1BA2
:2038E00051E107C0AA1FBB1FA617B70710F0A61BB70B881F991F5A95A9F780959095BC0149
:20390000CD010895EE0FFF1F0590F491E02D09942F923F924F925F926F927F928F929F9295
:20392000AF92BF92CF92DF92EF92FF920F931F93CF93DF93CDB7DEB7CA1BDB0B0FB6F894B4
:20394000DEBF0FBECDBF09942A88398848885F846E847D848C849B84AA84B984C884DF8076
:20396000EE80FD800C811B81AA81B981CE0FD11D0FB6F894DEBF0FBECDBFED01089513E03E
:20398000C8E8D3E004C0FE010E94841C2296CA38D107C9F7F894FFCF426C7565546F6F74E5
:2039A0006820505752206F6E00426C7565546F6F746820505752206F6B002B425450414945
:2039C00052494E473A002B4254434F4E4E454354494E473A004750525320505752204F4E88
:2039E0006E6E6E6E6E003130303836004750525320505752204F4B00696E69742065727276
:203A00006F720D0A0063616C6C20313030383600464D20505752204F4E6E6E6E6E6E00461E
:203A20004D20505752206F6B00464D20566F6C756D65204F4B00464D20696E6974207375D2
:203A4000636365737300464D206F7665720053746172742D2D3E20494F7320746573740035
:203A60004661696C656420312D2D3E20494F204C4F572C2070696E206E756D6265722D2DB8
:203A80003E20004661696C656420312D2D3E20494F20486967682C2070696E206E756D62DD
:203AA00065722D2D3E20004661696C656420322D2D3E20494F20484947482C2070696E209D
:203AC0006E756D6265722D2D3E20004661696C656420322D2D3E20494F204C4F572C2070F0
:203AE000696E206E756D6265722D2D3E20004661696C2D2D3E494F73207465737400494FF7
:203B000073207465737420204F4B00737461727420207465737420413120413320616E64D1
:203B200020413500413120413320616E64204135206669616C2E2E00737461727420207406
:203B400065737420766F6C740041305F35562074657374206669616C2E2E2E2E0041325FB3
:203B60003356332074657374206669616C2E2E2E2E0041345F5642415420746573742066CE
:203B800069616C2E2E2E2E004661696C2D2D3E766F6C7420746573740041542B42544143A4
:203BA00050543D310D0A004F4B000D0A4552524F523A41542B4254414350540D0A0041543D
:203BC0002B4254504F5745523D300D0A000D0A4552524F523A626C7565746F6F7468506FA3
:203BE0007765724F66660D0A0041542B4254504149523D312C310D0A0041542B42545350E8
:203C00005053454E440D0A003E000D0A4552524F523A41542B425453505053454E440D0A70
:203C20000041542B42545350504745543D300D0A000D0A4552524F523A41542B4254535003
:203C4000504745540D0A002B4254535050444154413A000D0A4552524F523A2067657420BA
:203C600064617461206572726F720D0A0041542B4254484F53543F0D0A002B4254484F53B4
:203C8000543A000D0A4552524F523A2067657420686F737420646576696365206E616D652C
:203CA000206572726F720D0A0041542B4254444953434F4E4E3D25640D0A000D0A45525262
:203CC0004F523A2041542B4254444953434F4E4E0D0A0041542B4254554E504149523D25E7
:203CE000640D0A000D0A4552524F523A2041542B4254554E504149520D0A0041542B4254BC
:203D0000504149523D302C25640D0A0041542B425447455450524F463D25640D0A0022537F
:203D2000505022000D0A4552524F523A204E6F205350502050726F66696C650D0A00415459
:203D40002B4254434F4E4E4543543D25642C25630D0A000D0A4552524F523A41542B4254D6
:203D6000434F4E4E4543540D0A002B425450414952494E473A002B4254434F4E4E45435452
:203D8000494E473A005350500041542B42545343414E3D312C32300D0A000D0A4552524F3B
:203DA000523A207363616E20466F722054617267657420446576696365206572726F720D1D
:203DC0000A0041542B4254504F5745523D310D0A000D0A4552524F523A626C7565746F6F9C
:203DE0007468506F7765724F6E0D0A0041542B464D5349474E414C3D25640D0A0024242BA5
:203E0000464D5349474E414C3A20667265715B25645D3A25640041542B464D5343414E0DC0
:203E20000A000D0A5741524E494E473A206E6F204368616E6E656C210D0A0041542B464DB0
:203E4000564F4C554D453D25640D0A004F4B000D0A4552524F523A666D536574566F6C7593
:203E60006D650D0A0041542B464D465245513D25640D0A000D0A4552524F523A666D536595
:203E800074467265710D0A0041542B434846413D300D0A000D0A4552524F523A41542B43D5
:203EA0004846410D0A0041542B464D434C4F53450D0A000D0A4552524F523A666D506F7758
:203EC00065724F66660D0A0041542B464D4F50454E3D310D0A000D0A4552524F523A666D21
:203EE000506F7765724F6E0D0A0041542B434950534855540D0A0041542B434950434C4F70
:203F000053450D0A004154410D0A0041542B434D47443D25640D0A0041542B434950534519
:203F20004E443D25640D0A003E004552524F523A43495053454E440053454E44204F4B0026
:203F40004552524F523A53656E64544350446174610041542B43495053544152543D2254D5
:203F60004350222C222573222C222564220D0A00434F4E4E454354204F4B004552524F5226
:203F80003A43495053544152540041542B434F4C503D310D0A004F4B00434F4C50000D0A2B
:203FA00041544425733B0D0A0041542B43475245473F0D0A002B43475245473A20302C3146
:203FC000004552524F523A43475245470041542B43474154543F0D0A002B43474154543A54
:203FE0002031004552524F523A43474154540041542B434D47463D310D0A0041542B434D87
:2040000047523D25640D0A002B434D4752002B33320041542B4350494E3F0D0A002B435048
:20402000494E3A2052454144590041540D0A0041542B4346554E3D310D0A004552524F5273
:204040003A636865636B53494D537461747573004552524F523A434D47460041542B434D8A
:2040600047533D222573220D0A004552524F523A434D47530041540D0A004F4B006E616E05
:2040800000696E66006F7666002E000D000C00000204060A010305050B0100E10000000040
:2040A0000000010100000000F20A4913D80AB70AB50BA40B00000000821249132112481217
:2040C0002F12AA12AE1200000000D4184913761933192619FFFFFFFFFFFFFFFFFFFFFFFFCD
:2040E000FFFFFFFFFFFFFFFFFFFFFFFFFFFFFFFFFFFFFFFFFFFFFFFFFFFFFFFFFFFFFFFFE0
:20410000FFFFFFFFFFFFFFFFFFFFFFFFFFFFFFFFFFFFFFFFFFFFFFFFFFFFFFFFFFFFFFFFBF
:20412000FFFFFFFFFFFFFFFFFFFFFFFFFFFFFFFFFFFFFFFFFFFFFFFFFFFFFFFFFFFFFFFF9F
:20414000FFFFFFFFFFFFFFFFFFFFFFFFFFFFFFFFFFFFFFFFFFFFFFFFFFFFFFFFFFFFFFFF7F
:2070000055C000006EC000006CC000006AC0000068C0000066C0000064C0000062C0000043
:2070200060C000005EC00000F2C400005AC0000058C0000056C0000054C0000052C00000EE
:2070400050C0000078C000004CC000004AC0000048C0000046C0000044C0000042C00000BE
:2070600040C000003EC000003CC000003AC0000038C0000036C0000034C0000032C0000048
:2070800030C000002EC000002CC000002AC0000028C0000026C0000024C0000022C00000A8
:2070A00020C000001EC000001CC0000011241FBECFEFDAE0DEBFCDBF11E0A0E0B1E0E2E3BC
:2070C000FFE702C005900D92A83AB107D9F711E0A8EAB1E001C01D92AE3BB107E1F78FD30B
:2070E00026C78ECFF89410926F0010928100109285001092840081E085BF15BE47985D9AEB
:20710000289A0C94000008952091B2013091B3012F5F3F4F3093B3012093B201932F37FFA6
:2071200003C08EEF831B982F990F921710F447980895479A08951F920F920FB60F9211246E
:207140002F938F939F93EF93FF9310928500109284008091A8019091A901009741F00197D3
:207160009093A9018093A801892B09F45D9A8091AA019091AB01009741F001979093AB0126
:207180008093AA01892B09F4289AE0E0F0E0859194918F5F9F4F49F08091AC019091AD0151
:2071A00001969093AD018093AC01FF91EF919F918F912F910F900FBE0F901F90189584E0BC
:2071C0008093E9000DC08091E8008B778093E80003C08EB3882351F08091E80082FFF9CFBE
:2071E0008091E80085FFEFCF8091F1000895982F83E08093E9008091E80085FD0DC0809136
:20720000E8008E778093E80003C08EB3882369F08091E80080FFF9CF9093F1005D9884E6CB
:2072200090E09093A9018093A80108954F925F926F927F928F929F92AF92BF92CF92DF921E
:20724000EF92FF920F931F93CF93DF9384E08093E9008091E80082FF57C2289884E690E067
:207260009093AB018093AA01AADF182F853481F48CE49DE19093AD018093AC0107B600FC4B
:20728000FDCFF999FECF81E180935700E89503C0843519F494DF8DE00DC28C34E1F38035F9
:2072A000D1F3843721F484E4A2DF80E003C2813611F489E5FFC18134B1F481DF182F7FDFE3
:2072C00090E0880F991FAA2797FDA095BA2F312F330F20E0442737FD4095542F822B932B68
:2072E000A42BB52BB8C1803711F483E5E3C1833549F4C0E0D1E089917ADF21E0C730D20714
:20730000D1F7D9C1863521F481E371DF80E3D2C1833731F487E86BDF85E969DF8EE1CAC149
:207320008536B9F4E0E0F0E093E085E090935700E89507B600FCFDCF80935700E89507B65D
:2073400000FCFDCFE058FF4FA0E7E030FA0771F7A2CF823739F4E1E0F0E089E08093570024
:207360008491A8C1863439F4E0E0F0E089E08093570084919FC18E3439F4E3E0F0E089E0E5
:2073800080935700849196C1813539F4E2E0F0E089E08093570084918DC1823631F489E521
:2073A00026DF80E024DF80E885C1823419F0873609F0E5C01092AD011092AC0100DF082FE8
:2073C000FEDEF82EFCDE682E8554823008F071C1902F80E0CF2DD0E0C82BD92B10926F00B3
:2073E000173609F04BC081E180935700E895DD24CC24C3943FC0E090AE01F090AF010091CC
:20740000B0011091B101B6E46B16D9F4ED2DF0E0EE29FF29E4918E2FEADEDD2081F082E08D
:2074200090E0A0E0B0E0E80EF91E0A1F1B1FE092AE01F092AF010093B0011093B101DC2470
:2074400018C0D801C701B695A7959795879559D5CEDE82E090E0A0E0B0E0E80EF91E0A1FF2
:207460001B1FE092AE01F092AF010093B0011093B1012197209709F0BECF7DC08090AE01F5
:207480009090AF01A090B001B090B10196E4691609F05DC083E0F40180935700E89507B63E
:2074A00000FCFDCF54C0F6E46F1661F5772031F1E090AE01F090AF010091B0011091B1019E
:2074C0007EDED82ECC24852D90E08C299D29F7010C0140925700E895112482E090E0A0E08B
:2074E000B0E0E80EF91E0A1F1B1FE092AE01F092AF010093B0011093B10102C060DE582E1A
:20750000742423C0E090AE01F090AF010091B0011091B10116950795F794E79450DE682FFA
:20752000C701F7D48091AE019091AF01A091B001B091B1010296A11DB11D8093AE01909349
:20754000AF01A093B001B093B101219704C05524772444244394209709F0A5CF96E46916B6
:2075600041F485E0F40180935700E89507B600FCFDCF8DE03CDE82E080936F009CC0833492
:2075800071F40091AE011091AF0119DE90E021E0F8010C0120935700E89511247CCE8336C8
:2075A00019F5E090AE01F090AF010091B0011091B10105DEF701E16090E021E00C0120938C
:2075C0005700E895112482E090E0A0E0B0E0E80EF91E0A1F1B1FE092AE01F092AF0100936A
:2075E000B0011093B10157CE8D3661F4E091AE01F091AF0185E080935700E89507B600FCF2
:20760000FDCF49CE823551F4E091AE01F091AF0105911491812FEBDD802F4CC0843421F5FE
:20762000E090AE01F090AF010091B0011091B10116950795F794E794C2DD682FC70169D4DE
:207640008091AE019091AF01A091B001B091B1010296A11DB11D8093AE019093AF01A093D8
:20766000B001B093B10117CE843609F5E090AE01F090AF010091B0011091B101D801C70142
:20768000B695A795979587953CD4B1DD82E090E0A0E0B0E0E80EF91E0A1F1B1FE092AE010A
:2076A000F092AF010093B0011093B10104C08B3111F08FE39CDD83E08093E9009091E8002B
:2076C0008091E8008E778093E80095FF04C010C08EB38823C9F08091E80080FFF9CF809193
:2076E000E8008E778093E80003C08EB3882361F08091E80080FFF9CF84E08093E9008091F1
:20770000E8008B778093E800DF91CF911F910F91FF90EF90DF90CF90BF90AF909F908F90AC
:207720007F906F905F904F9008959091B601892F8F77813249F58091B7018032A1F081328A
:2077400019F5913A09F58091E800877F8093E8008DE091E067E070E00BD28091E8008B770B
:207760008093E8000895913279F48091E800877F8093E8008DE091E067E070E05DD2809192
:20778000E8008E778093E800089582E061EC42E0B5D083E061E842E1B1D084E060E842E1EF
:2077A000ADC084B7877F84BF88E10FB6F89480936000109260000FBE20E880E090E00FB63F
:2077C000F89420936100809361000FBE81E085BF92E095BF3F9A209A559AE1E6F0E02083A1
:2077E000108247985D9A289A109289008AEF8093880090936F0083E080938100F0C0409116
:20780000000850910108109201081092000894B714BE88E10FB6F8948093600010926000D5
:207820000FBE292F30E0F901E270F07091FD18C090FF05C0859194918F5F9F4F81F423FFFF
:207840000FC08091090190910A014817590741F0E0E0F0E0859194918F5F9F4F09F042DC64
:20786000A0DF78941092AD011092AC010CC0DEDC36D38091AC019091AD0181549F4110F00D
:207880001092140141DC80911401882381F78091E00081608093E00025DC80E090E0089598
:2078A000FA01923049F0933061F09130F9F485E191E022E130E01EC087E291E02EE330E04D
:2078C00019C0882329F485E691E024E030E012C0813029F489E691E022E230E00BC0823006
:2078E00029F48DE891E028E130E004C080E090E020E030E091838083C90108958093E9004E
:207900008091EB0081608093EB001092ED006093EC004093ED008091EE00881F8827881F62
:2079200008958091B60188238CF403C08EB38823B1F08091E80082FFF9CF8091E8008B772A
:207940008093E80008958EB3882349F08091E80080FFF9CF8091E8008E778093E800089594
:20796000EF92FF920F931F9345D04CD008ED10E0F80180818F77808380818068808380819B
:207980008F7D808319BC1EBA1092B40180EEE82EF12CF70180818B7F8083F8018081816052
:2079A000808380E060E042E0A9DFE1EEF0E080818E7F8083E2EEF0E0808181608083808144
:2079C00088608083F70180818E7F8083F8018081806180831F910F91FF90EF900895E7ED06
:2079E000F0E08081816080838AE482BF81E08093B501B6CFE8EDF0E080818E7F808310921C
:207A0000E20008951092DA001092E10008951F920F920FB60F9211242F933F934F935F93F6
:207A20006F937F938F939F93AF93BF93EF93FF938091DA0080FF1BC08091D80080FF17C0B2
:207A40008091DA008E7F8093DA008091D90080FF0BC080E189BD82E189BD09B400FEFDCF36
:207A600081E08EBB3BD203C019BC1EBA37D28091E10080FF17C08091E20080FF13C0809138
:207A8000E2008E7F8093E2008091E20080618093E2008091D80080628093D80019BC85E049
:207AA0008EBB1CD28091E10084FF2CC08091E20084FF28C080E189BD82E189BD09B400FEC5
:207AC000FDCF8091D8008F7D8093D8008091E1008F7E8093E1008091E2008F7E8093E20012
:207AE0008091E20081608093E2008091B401882331F48091E30087FD02C081E001C084E067
:207B00008EBBECD18091E10083FF21C08091E20083FF1DC08091E100877F8093E10082E06A
:207B20008EBB1092B4018091E1008E7F8093E1008091E2008E7F8093E2008091E2008061E9
:207B40008093E20080E060E042E0D8DEC7D1FF91EF91BF91AF919F918F917F916F915F9130
:207B60004F913F912F910F900FBE0F901F9018959C014091BC015091BD014617570718F49D
:207B8000F90190E044C06115710511F0AB01F8CF8091E8008E778093E80040E050E0F0CF0F
:207BA0008EB3882309F444C0853009F443C08091E80083FF02C081E008958091E80082FD70
:207BC00031C08091E80080FF22C08091F3009091F200782F60E0292F30E0262B372B07C07A
:207BE00081918093F100415050402F5F3F4F4115510519F02830310598F390E02830310566
:207C000009F491E08091E8008E778093E8004115510531F6992321F605C08EB3882341F075
:207C2000853041F08091E80082FFF7CF80E0089582E0089583E008959C016115710529F47C
:207C40008091E8008B778093E800F90126C08EB3882391F1853091F18091E80083FF02C06C
:207C600081E008958091E80082FFF1CF06C08091F10081936150704059F02091F300809191
:207C8000F200322F20E090E0822B932B892B79F78091E8008B778093E80061157105B9F601
:207CA00005C08EB3882341F0853041F08091E80080FFF7CF80E0089582E0089583E00895C2
:207CC0000F931F93DF93CF9300D0CDB7DEB7E6EBF1E08091F100819381E0EE3BF807C9F792
:207CE00024DD8091E80083FFE4C08091B6019091B701953009F46DC0963040F4913081F1A7
:207D0000913070F0933009F0D4C02AC0983009F4A3C0993009F4B2C0963009F0CAC07CC023
:207D2000803809F4C6C0823809F0C3C08091BA0187708093E9008091EB001092E9002091DB
:207D4000E800277F2093E80090E025E0969587952A95E1F781708093F1001092F10087C0D8
:207D6000882319F0823009F0A4C08F71823009F0A0C08091B801882331F52091BA01277097
:207D800009F497C02093E9008091EB0080FF1BC0933021F48091EB00806213C08091EB0018
:207DA00080618093EB0081E090E002C0880F991F2A95E2F78093EA001092EA008091EB00E5
:207DC00088608093EB001092E9008091E800877F51C0882309F06DC01091B8011F770FB79B
:207DE000F8948091E800877F8093E8009ADD8091E80080FFFCCF8091E3008078812B809398
:207E0000E30080688093E300112311F482E001C083E08EBB0FBF4DC08058823008F049C033
:207E20008091B8019091B9016091BA01AE014F5F5F4F36DDBC01009709F43BC08091E8008E
:207E4000877F8093E80089819A8192DE8091E8008B778093E8002DC0803859F58091E800AA
:207E6000877F8093E8008091B4018093F1008091E8008E778093E80054DD1BC08823C9F4CA
:207E80009091B8019230A8F48091E800877F8093E8009093B40145DD8091B401882331F420
:207EA0008091E30087FD02C081E001C084E08EBB6CDC8091E80083FF0AC08091EB0080624E
:207EC0008093EB008091E800877F8093E8000F900F90CF91DF911F910F91089508951F9360
:207EE0008EB3882361F01091E9001092E9008091E80083FF01C0E4DE17701093E9001F916F
:207F00000895F999FECF92BD81BDF89A992780B50895262FF999FECF1FBA92BD81BD20BDBD
:207F20000FB6F894FA9AF99A0FBE01960895F894FFCF4341544552494E4100777700080031
:207F40000000000000080112011001020000084123360001000201000109023E00020100FF
:207F600080320904000001020201000524001001042402040524060001070582030800FF0C
:207F800009040100020A000000070504021000010705830210000104030904220341007216
:207FA000006400750069006E006F0020004C0065006F006E006100720064006F0000001836
:1A7FC00003410072006400750069006E006F0020004C004C004300000000D7
:00000001FF
